{
  "_format": "hh-sol-artifact-1",
  "contractName": "Collectibles",
  "sourceName": "contracts/Collectibles.sol",
  "abi": [
    {
      "inputs": [
        {
          "internalType": "string",
          "name": "name",
          "type": "string"
        },
        {
          "internalType": "string",
          "name": "symbol",
          "type": "string"
        },
        {
          "internalType": "string",
          "name": "baseTokenURI",
          "type": "string"
        },
        {
          "internalType": "address",
          "name": "owner",
          "type": "address"
        }
      ],
      "stateMutability": "nonpayable",
      "type": "constructor"
    },
    {
      "inputs": [],
      "name": "ERC721EnumerableForbiddenBatchMint",
      "type": "error"
    },
    {
      "inputs": [
        {
          "internalType": "address",
          "name": "sender",
          "type": "address"
        },
        {
          "internalType": "uint256",
          "name": "tokenId",
          "type": "uint256"
        },
        {
          "internalType": "address",
          "name": "owner",
          "type": "address"
        }
      ],
      "name": "ERC721IncorrectOwner",
      "type": "error"
    },
    {
      "inputs": [
        {
          "internalType": "address",
          "name": "operator",
          "type": "address"
        },
        {
          "internalType": "uint256",
          "name": "tokenId",
          "type": "uint256"
        }
      ],
      "name": "ERC721InsufficientApproval",
      "type": "error"
    },
    {
      "inputs": [
        {
          "internalType": "address",
          "name": "approver",
          "type": "address"
        }
      ],
      "name": "ERC721InvalidApprover",
      "type": "error"
    },
    {
      "inputs": [
        {
          "internalType": "address",
          "name": "operator",
          "type": "address"
        }
      ],
      "name": "ERC721InvalidOperator",
      "type": "error"
    },
    {
      "inputs": [
        {
          "internalType": "address",
          "name": "owner",
          "type": "address"
        }
      ],
      "name": "ERC721InvalidOwner",
      "type": "error"
    },
    {
      "inputs": [
        {
          "internalType": "address",
          "name": "receiver",
          "type": "address"
        }
      ],
      "name": "ERC721InvalidReceiver",
      "type": "error"
    },
    {
      "inputs": [
        {
          "internalType": "address",
          "name": "sender",
          "type": "address"
        }
      ],
      "name": "ERC721InvalidSender",
      "type": "error"
    },
    {
      "inputs": [
        {
          "internalType": "uint256",
          "name": "tokenId",
          "type": "uint256"
        }
      ],
      "name": "ERC721NonexistentToken",
      "type": "error"
    },
    {
      "inputs": [
        {
          "internalType": "address",
          "name": "owner",
          "type": "address"
        },
        {
          "internalType": "uint256",
          "name": "index",
          "type": "uint256"
        }
      ],
      "name": "ERC721OutOfBoundsIndex",
      "type": "error"
    },
    {
      "inputs": [
        {
          "internalType": "address",
          "name": "owner",
          "type": "address"
        }
      ],
      "name": "OwnableInvalidOwner",
      "type": "error"
    },
    {
      "inputs": [
        {
          "internalType": "address",
          "name": "account",
          "type": "address"
        }
      ],
      "name": "OwnableUnauthorizedAccount",
      "type": "error"
    },
    {
      "anonymous": false,
      "inputs": [
        {
          "indexed": true,
          "internalType": "address",
          "name": "owner",
          "type": "address"
        },
        {
          "indexed": true,
          "internalType": "address",
          "name": "approved",
          "type": "address"
        },
        {
          "indexed": true,
          "internalType": "uint256",
          "name": "tokenId",
          "type": "uint256"
        }
      ],
      "name": "Approval",
      "type": "event"
    },
    {
      "anonymous": false,
      "inputs": [
        {
          "indexed": true,
          "internalType": "address",
          "name": "owner",
          "type": "address"
        },
        {
          "indexed": true,
          "internalType": "address",
          "name": "operator",
          "type": "address"
        },
        {
          "indexed": false,
          "internalType": "bool",
          "name": "approved",
          "type": "bool"
        }
      ],
      "name": "ApprovalForAll",
      "type": "event"
    },
    {
      "anonymous": false,
      "inputs": [
        {
          "indexed": true,
          "internalType": "address",
          "name": "previousOwner",
          "type": "address"
        },
        {
          "indexed": true,
          "internalType": "address",
          "name": "newOwner",
          "type": "address"
        }
      ],
      "name": "OwnershipTransferred",
      "type": "event"
    },
    {
      "anonymous": false,
      "inputs": [
        {
          "indexed": true,
          "internalType": "address",
          "name": "from",
          "type": "address"
        },
        {
          "indexed": true,
          "internalType": "address",
          "name": "to",
          "type": "address"
        },
        {
          "indexed": true,
          "internalType": "uint256",
          "name": "tokenId",
          "type": "uint256"
        }
      ],
      "name": "Transfer",
      "type": "event"
    },
    {
      "inputs": [
        {
          "internalType": "address",
          "name": "to",
          "type": "address"
        },
        {
          "internalType": "uint256",
          "name": "tokenId",
          "type": "uint256"
        }
      ],
      "name": "approve",
      "outputs": [],
      "stateMutability": "nonpayable",
      "type": "function"
    },
    {
      "inputs": [
        {
          "internalType": "address",
          "name": "owner",
          "type": "address"
        }
      ],
      "name": "balanceOf",
      "outputs": [
        {
          "internalType": "uint256",
          "name": "",
          "type": "uint256"
        }
      ],
      "stateMutability": "view",
      "type": "function"
    },
    {
      "inputs": [
        {
          "internalType": "address",
          "name": "owner",
          "type": "address"
        },
        {
          "internalType": "uint256",
          "name": "tokenId",
          "type": "uint256"
        },
        {
          "internalType": "string",
          "name": "ipInfo",
          "type": "string"
        }
      ],
      "name": "createCollectible",
      "outputs": [],
      "stateMutability": "nonpayable",
      "type": "function"
    },
    {
      "inputs": [
        {
          "internalType": "uint256",
          "name": "tokenId",
          "type": "uint256"
        }
      ],
      "name": "getApproved",
      "outputs": [
        {
          "internalType": "address",
          "name": "",
          "type": "address"
        }
      ],
      "stateMutability": "view",
      "type": "function"
    },
    {
      "inputs": [
        {
          "internalType": "uint256",
          "name": "tokenId",
          "type": "uint256"
        }
      ],
      "name": "getIPInfo",
      "outputs": [
        {
          "internalType": "string",
          "name": "",
          "type": "string"
        }
      ],
      "stateMutability": "view",
      "type": "function"
    },
    {
      "inputs": [
        {
          "internalType": "address",
          "name": "owner",
          "type": "address"
        },
        {
          "internalType": "address",
          "name": "operator",
          "type": "address"
        }
      ],
      "name": "isApprovedForAll",
      "outputs": [
        {
          "internalType": "bool",
          "name": "",
          "type": "bool"
        }
      ],
      "stateMutability": "view",
      "type": "function"
    },
    {
      "inputs": [],
      "name": "name",
      "outputs": [
        {
          "internalType": "string",
          "name": "",
          "type": "string"
        }
      ],
      "stateMutability": "view",
      "type": "function"
    },
    {
      "inputs": [],
      "name": "owner",
      "outputs": [
        {
          "internalType": "address",
          "name": "",
          "type": "address"
        }
      ],
      "stateMutability": "view",
      "type": "function"
    },
    {
      "inputs": [
        {
          "internalType": "uint256",
          "name": "tokenId",
          "type": "uint256"
        }
      ],
      "name": "ownerOf",
      "outputs": [
        {
          "internalType": "address",
          "name": "",
          "type": "address"
        }
      ],
      "stateMutability": "view",
      "type": "function"
    },
    {
      "inputs": [],
      "name": "renounceOwnership",
      "outputs": [],
      "stateMutability": "nonpayable",
      "type": "function"
    },
    {
      "inputs": [
        {
          "internalType": "address",
          "name": "from",
          "type": "address"
        },
        {
          "internalType": "address",
          "name": "to",
          "type": "address"
        },
        {
          "internalType": "uint256",
          "name": "tokenId",
          "type": "uint256"
        }
      ],
      "name": "safeTransferFrom",
      "outputs": [],
      "stateMutability": "nonpayable",
      "type": "function"
    },
    {
      "inputs": [
        {
          "internalType": "address",
          "name": "from",
          "type": "address"
        },
        {
          "internalType": "address",
          "name": "to",
          "type": "address"
        },
        {
          "internalType": "uint256",
          "name": "tokenId",
          "type": "uint256"
        },
        {
          "internalType": "bytes",
          "name": "data",
          "type": "bytes"
        }
      ],
      "name": "safeTransferFrom",
      "outputs": [],
      "stateMutability": "nonpayable",
      "type": "function"
    },
    {
      "inputs": [
        {
          "internalType": "address",
          "name": "operator",
          "type": "address"
        },
        {
          "internalType": "bool",
          "name": "approved",
          "type": "bool"
        }
      ],
      "name": "setApprovalForAll",
      "outputs": [],
      "stateMutability": "nonpayable",
      "type": "function"
    },
    {
      "inputs": [
        {
          "internalType": "string",
          "name": "baseTokenURI",
          "type": "string"
        }
      ],
      "name": "setBaseURI",
      "outputs": [],
      "stateMutability": "nonpayable",
      "type": "function"
    },
    {
      "inputs": [
        {
          "internalType": "bytes4",
          "name": "interfaceId",
          "type": "bytes4"
        }
      ],
      "name": "supportsInterface",
      "outputs": [
        {
          "internalType": "bool",
          "name": "",
          "type": "bool"
        }
      ],
      "stateMutability": "view",
      "type": "function"
    },
    {
      "inputs": [],
      "name": "symbol",
      "outputs": [
        {
          "internalType": "string",
          "name": "",
          "type": "string"
        }
      ],
      "stateMutability": "view",
      "type": "function"
    },
    {
      "inputs": [
        {
          "internalType": "uint256",
          "name": "index",
          "type": "uint256"
        }
      ],
      "name": "tokenByIndex",
      "outputs": [
        {
          "internalType": "uint256",
          "name": "",
          "type": "uint256"
        }
      ],
      "stateMutability": "view",
      "type": "function"
    },
    {
      "inputs": [
        {
          "internalType": "address",
          "name": "owner",
          "type": "address"
        },
        {
          "internalType": "uint256",
          "name": "index",
          "type": "uint256"
        }
      ],
      "name": "tokenOfOwnerByIndex",
      "outputs": [
        {
          "internalType": "uint256",
          "name": "",
          "type": "uint256"
        }
      ],
      "stateMutability": "view",
      "type": "function"
    },
    {
      "inputs": [
        {
          "internalType": "uint256",
          "name": "tokenId",
          "type": "uint256"
        }
      ],
      "name": "tokenURI",
      "outputs": [
        {
          "internalType": "string",
          "name": "",
          "type": "string"
        }
      ],
      "stateMutability": "view",
      "type": "function"
    },
    {
      "inputs": [],
      "name": "totalSupply",
      "outputs": [
        {
          "internalType": "uint256",
          "name": "",
          "type": "uint256"
        }
      ],
      "stateMutability": "view",
      "type": "function"
    },
    {
      "inputs": [
        {
          "internalType": "address",
          "name": "from",
          "type": "address"
        },
        {
          "internalType": "address",
          "name": "to",
          "type": "address"
        },
        {
          "internalType": "uint256",
          "name": "tokenId",
          "type": "uint256"
        }
      ],
      "name": "transferFrom",
      "outputs": [],
      "stateMutability": "nonpayable",
      "type": "function"
    },
    {
      "inputs": [
        {
          "internalType": "address",
          "name": "newOwner",
          "type": "address"
        }
      ],
      "name": "transferOwnership",
      "outputs": [],
      "stateMutability": "nonpayable",
      "type": "function"
    }
  ],
  "bytecode": "0x60806040523480156200001157600080fd5b50604051620034f7380380620034f78339818101604052810190620000379190620003c1565b80848481600090816200004b9190620006db565b5080600190816200005d9190620006db565b505050600073ffffffffffffffffffffffffffffffffffffffff168173ffffffffffffffffffffffffffffffffffffffff1603620000d55760006040517f1e4fbdf7000000000000000000000000000000000000000000000000000000008152600401620000cc9190620007d3565b60405180910390fd5b620000e6816200010360201b60201c565b5081600b9081620000f89190620006db565b5050505050620007f0565b6000600a60009054906101000a900473ffffffffffffffffffffffffffffffffffffffff16905081600a60006101000a81548173ffffffffffffffffffffffffffffffffffffffff021916908373ffffffffffffffffffffffffffffffffffffffff1602179055508173ffffffffffffffffffffffffffffffffffffffff168173ffffffffffffffffffffffffffffffffffffffff167f8be0079c531659141344cd1fd0a4f28419497f9722a3daafe3b4186f6b6457e060405160405180910390a35050565b6000604051905090565b600080fd5b600080fd5b600080fd5b600080fd5b6000601f19601f8301169050919050565b7f4e487b7100000000000000000000000000000000000000000000000000000000600052604160045260246000fd5b6200023282620001e7565b810181811067ffffffffffffffff82111715620002545762000253620001f8565b5b80604052505050565b600062000269620001c9565b905062000277828262000227565b919050565b600067ffffffffffffffff8211156200029a5762000299620001f8565b5b620002a582620001e7565b9050602081019050919050565b60005b83811015620002d2578082015181840152602081019050620002b5565b60008484015250505050565b6000620002f5620002ef846200027c565b6200025d565b905082815260208101848484011115620003145762000313620001e2565b5b62000321848285620002b2565b509392505050565b600082601f830112620003415762000340620001dd565b5b815162000353848260208601620002de565b91505092915050565b600073ffffffffffffffffffffffffffffffffffffffff82169050919050565b600062000389826200035c565b9050919050565b6200039b816200037c565b8114620003a757600080fd5b50565b600081519050620003bb8162000390565b92915050565b60008060008060808587031215620003de57620003dd620001d3565b5b600085015167ffffffffffffffff811115620003ff57620003fe620001d8565b5b6200040d8782880162000329565b945050602085015167ffffffffffffffff811115620004315762000430620001d8565b5b6200043f8782880162000329565b935050604085015167ffffffffffffffff811115620004635762000462620001d8565b5b620004718782880162000329565b92505060606200048487828801620003aa565b91505092959194509250565b600081519050919050565b7f4e487b7100000000000000000000000000000000000000000000000000000000600052602260045260246000fd5b60006002820490506001821680620004e357607f821691505b602082108103620004f957620004f86200049b565b5b50919050565b60008190508160005260206000209050919050565b60006020601f8301049050919050565b600082821b905092915050565b600060088302620005637fffffffffffffffffffffffffffffffffffffffffffffffffffffffffffffffff8262000524565b6200056f868362000524565b95508019841693508086168417925050509392505050565b6000819050919050565b6000819050919050565b6000620005bc620005b6620005b08462000587565b62000591565b62000587565b9050919050565b6000819050919050565b620005d8836200059b565b620005f0620005e782620005c3565b84845462000531565b825550505050565b600090565b62000607620005f8565b62000614818484620005cd565b505050565b5b818110156200063c5762000630600082620005fd565b6001810190506200061a565b5050565b601f8211156200068b576200065581620004ff565b620006608462000514565b8101602085101562000670578190505b620006886200067f8562000514565b83018262000619565b50505b505050565b600082821c905092915050565b6000620006b06000198460080262000690565b1980831691505092915050565b6000620006cb83836200069d565b9150826002028217905092915050565b620006e68262000490565b67ffffffffffffffff811115620007025762000701620001f8565b5b6200070e8254620004ca565b6200071b82828562000640565b600060209050601f8311600181146200075357600084156200073e578287015190505b6200074a8582620006bd565b865550620007ba565b601f1984166200076386620004ff565b60005b828110156200078d5784890151825560018201915060208501945060208101905062000766565b86831015620007ad5784890151620007a9601f8916826200069d565b8355505b6001600288020188555050505b505050505050565b620007cd816200037c565b82525050565b6000602082019050620007ea6000830184620007c2565b92915050565b612cf780620008006000396000f3fe608060405234801561001057600080fd5b50600436106101425760003560e01c80636352211e116100b8578063a22cb4651161007c578063a22cb46514610389578063b88d4fde146103a5578063c87b56dd146103c1578063e985e9c5146103f1578063f2fde38b14610421578063f7c1701f1461043d57610142565b80636352211e146102e357806370a0823114610313578063715018a6146103435780638da5cb5b1461034d57806395d89b411461036b57610142565b806323b872dd1161010a57806323b872dd146101ff5780632f745c591461021b57806342842e0e1461024b5780634effbf20146102675780634f6ccce71461029757806355f804b3146102c757610142565b806301ffc9a71461014757806306fdde0314610177578063081812fc14610195578063095ea7b3146101c557806318160ddd146101e1575b600080fd5b610161600480360381019061015c91906120a9565b610459565b60405161016e91906120f1565b60405180910390f35b61017f6104d3565b60405161018c919061219c565b60405180910390f35b6101af60048036038101906101aa91906121f4565b610565565b6040516101bc9190612262565b60405180910390f35b6101df60048036038101906101da91906122a9565b610581565b005b6101e9610597565b6040516101f691906122f8565b60405180910390f35b61021960048036038101906102149190612313565b6105a4565b005b610235600480360381019061023091906122a9565b6106a6565b60405161024291906122f8565b60405180910390f35b61026560048036038101906102609190612313565b61074f565b005b610281600480360381019061027c91906121f4565b61076f565b60405161028e919061219c565b60405180910390f35b6102b160048036038101906102ac91906121f4565b610814565b6040516102be91906122f8565b60405180910390f35b6102e160048036038101906102dc919061249b565b61088a565b005b6102fd60048036038101906102f891906121f4565b6108a5565b60405161030a9190612262565b60405180910390f35b61032d600480360381019061032891906124e4565b6108b7565b60405161033a91906122f8565b60405180910390f35b61034b610971565b005b610355610985565b6040516103629190612262565b60405180910390f35b6103736109af565b604051610380919061219c565b60405180910390f35b6103a3600480360381019061039e919061253d565b610a41565b005b6103bf60048036038101906103ba919061261e565b610a57565b005b6103db60048036038101906103d691906121f4565b610a74565b6040516103e8919061219c565b60405180910390f35b61040b600480360381019061040691906126a1565b610add565b60405161041891906120f1565b60405180910390f35b61043b600480360381019061043691906124e4565b610b71565b005b610457600480360381019061045291906126e1565b610bf7565b005b60007f780e9d63000000000000000000000000000000000000000000000000000000007bffffffffffffffffffffffffffffffffffffffffffffffffffffffff1916827bffffffffffffffffffffffffffffffffffffffffffffffffffffffff191614806104cc57506104cb82610c2f565b5b9050919050565b6060600080546104e29061277f565b80601f016020809104026020016040519081016040528092919081815260200182805461050e9061277f565b801561055b5780601f106105305761010080835404028352916020019161055b565b820191906000526020600020905b81548152906001019060200180831161053e57829003601f168201915b5050505050905090565b600061057082610d11565b5061057a82610d99565b9050919050565b610593828261058e610dd6565b610dde565b5050565b6000600880549050905090565b600073ffffffffffffffffffffffffffffffffffffffff168273ffffffffffffffffffffffffffffffffffffffff16036106165760006040517f64a0ae9200000000000000000000000000000000000000000000000000000000815260040161060d9190612262565b60405180910390fd5b600061062a8383610625610dd6565b610df0565b90508373ffffffffffffffffffffffffffffffffffffffff168173ffffffffffffffffffffffffffffffffffffffff16146106a0578382826040517f64283d7b000000000000000000000000000000000000000000000000000000008152600401610697939291906127b0565b60405180910390fd5b50505050565b60006106b1836108b7565b82106106f65782826040517fa57d13dc0000000000000000000000000000000000000000000000000000000081526004016106ed9291906127e7565b60405180910390fd5b600660008473ffffffffffffffffffffffffffffffffffffffff1673ffffffffffffffffffffffffffffffffffffffff168152602001908152602001600020600083815260200190815260200160002054905092915050565b61076a83838360405180602001604052806000815250610a57565b505050565b6060600c6000838152602001908152602001600020805461078f9061277f565b80601f01602080910402602001604051908101604052809291908181526020018280546107bb9061277f565b80156108085780601f106107dd57610100808354040283529160200191610808565b820191906000526020600020905b8154815290600101906020018083116107eb57829003601f168201915b50505050509050919050565b600061081e610597565b8210610864576000826040517fa57d13dc00000000000000000000000000000000000000000000000000000000815260040161085b9291906127e7565b60405180910390fd5b6008828154811061087857610877612810565b5b90600052602060002001549050919050565b610892610f0d565b80600b90816108a191906129eb565b5050565b60006108b082610d11565b9050919050565b60008073ffffffffffffffffffffffffffffffffffffffff168273ffffffffffffffffffffffffffffffffffffffff160361092a5760006040517f89c62b640000000000000000000000000000000000000000000000000000000081526004016109219190612262565b60405180910390fd5b600360008373ffffffffffffffffffffffffffffffffffffffff1673ffffffffffffffffffffffffffffffffffffffff168152602001908152602001600020549050919050565b610979610f0d565b6109836000610f94565b565b6000600a60009054906101000a900473ffffffffffffffffffffffffffffffffffffffff16905090565b6060600180546109be9061277f565b80601f01602080910402602001604051908101604052809291908181526020018280546109ea9061277f565b8015610a375780601f10610a0c57610100808354040283529160200191610a37565b820191906000526020600020905b815481529060010190602001808311610a1a57829003601f168201915b5050505050905090565b610a53610a4c610dd6565b838361105a565b5050565b610a628484846105a4565b610a6e848484846111c9565b50505050565b6060610a7f82610d11565b506000610a8a611380565b90506000815111610aaa5760405180602001604052806000815250610ad5565b80610ab484611412565b604051602001610ac5929190612af9565b6040516020818303038152906040525b915050919050565b6000600560008473ffffffffffffffffffffffffffffffffffffffff1673ffffffffffffffffffffffffffffffffffffffff16815260200190815260200160002060008373ffffffffffffffffffffffffffffffffffffffff1673ffffffffffffffffffffffffffffffffffffffff16815260200190815260200160002060009054906101000a900460ff16905092915050565b610b79610f0d565b600073ffffffffffffffffffffffffffffffffffffffff168173ffffffffffffffffffffffffffffffffffffffff1603610beb5760006040517f1e4fbdf7000000000000000000000000000000000000000000000000000000008152600401610be29190612262565b60405180910390fd5b610bf481610f94565b50565b610bff610f0d565b610c0983836114e0565b80600c60008481526020019081526020016000209081610c2991906129eb565b50505050565b60007f80ac58cd000000000000000000000000000000000000000000000000000000007bffffffffffffffffffffffffffffffffffffffffffffffffffffffff1916827bffffffffffffffffffffffffffffffffffffffffffffffffffffffff19161480610cfa57507f5b5e139f000000000000000000000000000000000000000000000000000000007bffffffffffffffffffffffffffffffffffffffffffffffffffffffff1916827bffffffffffffffffffffffffffffffffffffffffffffffffffffffff1916145b80610d0a5750610d09826115d9565b5b9050919050565b600080610d1d83611643565b9050600073ffffffffffffffffffffffffffffffffffffffff168173ffffffffffffffffffffffffffffffffffffffff1603610d9057826040517f7e273289000000000000000000000000000000000000000000000000000000008152600401610d8791906122f8565b60405180910390fd5b80915050919050565b60006004600083815260200190815260200160002060009054906101000a900473ffffffffffffffffffffffffffffffffffffffff169050919050565b600033905090565b610deb8383836001611680565b505050565b600080610dfe858585611845565b9050600073ffffffffffffffffffffffffffffffffffffffff168173ffffffffffffffffffffffffffffffffffffffff1603610e4257610e3d84611a5f565b610e81565b8473ffffffffffffffffffffffffffffffffffffffff168173ffffffffffffffffffffffffffffffffffffffff1614610e8057610e7f8185611aa8565b5b5b600073ffffffffffffffffffffffffffffffffffffffff168573ffffffffffffffffffffffffffffffffffffffff1603610ec357610ebe84611c09565b610f02565b8473ffffffffffffffffffffffffffffffffffffffff168173ffffffffffffffffffffffffffffffffffffffff1614610f0157610f008585611cda565b5b5b809150509392505050565b610f15610dd6565b73ffffffffffffffffffffffffffffffffffffffff16610f33610985565b73ffffffffffffffffffffffffffffffffffffffff1614610f9257610f56610dd6565b6040517f118cdaa7000000000000000000000000000000000000000000000000000000008152600401610f899190612262565b60405180910390fd5b565b6000600a60009054906101000a900473ffffffffffffffffffffffffffffffffffffffff16905081600a60006101000a81548173ffffffffffffffffffffffffffffffffffffffff021916908373ffffffffffffffffffffffffffffffffffffffff1602179055508173ffffffffffffffffffffffffffffffffffffffff168173ffffffffffffffffffffffffffffffffffffffff167f8be0079c531659141344cd1fd0a4f28419497f9722a3daafe3b4186f6b6457e060405160405180910390a35050565b600073ffffffffffffffffffffffffffffffffffffffff168273ffffffffffffffffffffffffffffffffffffffff16036110cb57816040517f5b08ba180000000000000000000000000000000000000000000000000000000081526004016110c29190612262565b60405180910390fd5b80600560008573ffffffffffffffffffffffffffffffffffffffff1673ffffffffffffffffffffffffffffffffffffffff16815260200190815260200160002060008473ffffffffffffffffffffffffffffffffffffffff1673ffffffffffffffffffffffffffffffffffffffff16815260200190815260200160002060006101000a81548160ff0219169083151502179055508173ffffffffffffffffffffffffffffffffffffffff168373ffffffffffffffffffffffffffffffffffffffff167f17307eab39ab6107e8899845ad3d59bd9653f200f220920489ca2b5937696c31836040516111bc91906120f1565b60405180910390a3505050565b60008373ffffffffffffffffffffffffffffffffffffffff163b111561137a578273ffffffffffffffffffffffffffffffffffffffff1663150b7a0261120d610dd6565b8685856040518563ffffffff1660e01b815260040161122f9493929190612b72565b6020604051808303816000875af192505050801561126b57506040513d601f19601f820116820180604052508101906112689190612bd3565b60015b6112ef573d806000811461129b576040519150601f19603f3d011682016040523d82523d6000602084013e6112a0565b606091505b5060008151036112e757836040517f64a0ae920000000000000000000000000000000000000000000000000000000081526004016112de9190612262565b60405180910390fd5b805181602001fd5b63150b7a0260e01b7bffffffffffffffffffffffffffffffffffffffffffffffffffffffff1916817bffffffffffffffffffffffffffffffffffffffffffffffffffffffff19161461137857836040517f64a0ae9200000000000000000000000000000000000000000000000000000000815260040161136f9190612262565b60405180910390fd5b505b50505050565b6060600b805461138f9061277f565b80601f01602080910402602001604051908101604052809291908181526020018280546113bb9061277f565b80156114085780601f106113dd57610100808354040283529160200191611408565b820191906000526020600020905b8154815290600101906020018083116113eb57829003601f168201915b5050505050905090565b60606000600161142184611d65565b01905060008167ffffffffffffffff8111156114405761143f612370565b5b6040519080825280601f01601f1916602001820160405280156114725781602001600182028036833780820191505090505b509050600082602001820190505b6001156114d5578080600190039150507f3031323334353637383961626364656600000000000000000000000000000000600a86061a8153600a85816114c9576114c8612c00565b5b04945060008503611480575b819350505050919050565b600073ffffffffffffffffffffffffffffffffffffffff168273ffffffffffffffffffffffffffffffffffffffff16036115525760006040517f64a0ae920000000000000000000000000000000000000000000000000000000081526004016115499190612262565b60405180910390fd5b600061156083836000610df0565b9050600073ffffffffffffffffffffffffffffffffffffffff168173ffffffffffffffffffffffffffffffffffffffff16146115d45760006040517f73c6ac6e0000000000000000000000000000000000000000000000000000000081526004016115cb9190612262565b60405180910390fd5b505050565b60007f01ffc9a7000000000000000000000000000000000000000000000000000000007bffffffffffffffffffffffffffffffffffffffffffffffffffffffff1916827bffffffffffffffffffffffffffffffffffffffffffffffffffffffff1916149050919050565b60006002600083815260200190815260200160002060009054906101000a900473ffffffffffffffffffffffffffffffffffffffff169050919050565b80806116b95750600073ffffffffffffffffffffffffffffffffffffffff168273ffffffffffffffffffffffffffffffffffffffff1614155b156117ed5760006116c984610d11565b9050600073ffffffffffffffffffffffffffffffffffffffff168373ffffffffffffffffffffffffffffffffffffffff161415801561173457508273ffffffffffffffffffffffffffffffffffffffff168173ffffffffffffffffffffffffffffffffffffffff1614155b801561174757506117458184610add565b155b1561178957826040517fa9fbf51f0000000000000000000000000000000000000000000000000000000081526004016117809190612262565b60405180910390fd5b81156117eb57838573ffffffffffffffffffffffffffffffffffffffff168273ffffffffffffffffffffffffffffffffffffffff167f8c5be1e5ebec7d5bd14f71427d1e84f3dd0314c0f7b2291e5b200ac8c7c3b92560405160405180910390a45b505b836004600085815260200190815260200160002060006101000a81548173ffffffffffffffffffffffffffffffffffffffff021916908373ffffffffffffffffffffffffffffffffffffffff16021790555050505050565b60008061185184611643565b9050600073ffffffffffffffffffffffffffffffffffffffff168373ffffffffffffffffffffffffffffffffffffffff161461189357611892818486611eb8565b5b600073ffffffffffffffffffffffffffffffffffffffff168173ffffffffffffffffffffffffffffffffffffffff1614611924576118d5600085600080611680565b6001600360008373ffffffffffffffffffffffffffffffffffffffff1673ffffffffffffffffffffffffffffffffffffffff168152602001908152602001600020600082825403925050819055505b600073ffffffffffffffffffffffffffffffffffffffff168573ffffffffffffffffffffffffffffffffffffffff16146119a7576001600360008773ffffffffffffffffffffffffffffffffffffffff1673ffffffffffffffffffffffffffffffffffffffff168152602001908152602001600020600082825401925050819055505b846002600086815260200190815260200160002060006101000a81548173ffffffffffffffffffffffffffffffffffffffff021916908373ffffffffffffffffffffffffffffffffffffffff160217905550838573ffffffffffffffffffffffffffffffffffffffff168273ffffffffffffffffffffffffffffffffffffffff167fddf252ad1be2c89b69c2b068fc378daa952ba7f163c4a11628f55a4df523b3ef60405160405180910390a4809150509392505050565b6008805490506009600083815260200190815260200160002081905550600881908060018154018082558091505060019003906000526020600020016000909190919091505550565b6000611ab3836108b7565b9050600060076000848152602001908152602001600020549050818114611b98576000600660008673ffffffffffffffffffffffffffffffffffffffff1673ffffffffffffffffffffffffffffffffffffffff168152602001908152602001600020600084815260200190815260200160002054905080600660008773ffffffffffffffffffffffffffffffffffffffff1673ffffffffffffffffffffffffffffffffffffffff168152602001908152602001600020600084815260200190815260200160002081905550816007600083815260200190815260200160002081905550505b6007600084815260200190815260200160002060009055600660008573ffffffffffffffffffffffffffffffffffffffff1673ffffffffffffffffffffffffffffffffffffffff16815260200190815260200160002060008381526020019081526020016000206000905550505050565b60006001600880549050611c1d9190612c5e565b9050600060096000848152602001908152602001600020549050600060088381548110611c4d57611c4c612810565b5b906000526020600020015490508060088381548110611c6f57611c6e612810565b5b906000526020600020018190555081600960008381526020019081526020016000208190555060096000858152602001908152602001600020600090556008805480611cbe57611cbd612c92565b5b6001900381819060005260206000200160009055905550505050565b60006001611ce7846108b7565b611cf19190612c5e565b905081600660008573ffffffffffffffffffffffffffffffffffffffff1673ffffffffffffffffffffffffffffffffffffffff168152602001908152602001600020600083815260200190815260200160002081905550806007600084815260200190815260200160002081905550505050565b600080600090507a184f03e93ff9f4daa797ed6e38ed64bf6a1f0100000000000000008310611dc3577a184f03e93ff9f4daa797ed6e38ed64bf6a1f0100000000000000008381611db957611db8612c00565b5b0492506040810190505b6d04ee2d6d415b85acef81000000008310611e00576d04ee2d6d415b85acef81000000008381611df657611df5612c00565b5b0492506020810190505b662386f26fc100008310611e2f57662386f26fc100008381611e2557611e24612c00565b5b0492506010810190505b6305f5e1008310611e58576305f5e1008381611e4e57611e4d612c00565b5b0492506008810190505b6127108310611e7d576127108381611e7357611e72612c00565b5b0492506004810190505b60648310611ea05760648381611e9657611e95612c00565b5b0492506002810190505b600a8310611eaf576001810190505b80915050919050565b611ec3838383611f7c565b611f7757600073ffffffffffffffffffffffffffffffffffffffff168373ffffffffffffffffffffffffffffffffffffffff1603611f3857806040517f7e273289000000000000000000000000000000000000000000000000000000008152600401611f2f91906122f8565b60405180910390fd5b81816040517f177e802f000000000000000000000000000000000000000000000000000000008152600401611f6e9291906127e7565b60405180910390fd5b505050565b60008073ffffffffffffffffffffffffffffffffffffffff168373ffffffffffffffffffffffffffffffffffffffff161415801561203457508273ffffffffffffffffffffffffffffffffffffffff168473ffffffffffffffffffffffffffffffffffffffff161480611ff55750611ff48484610add565b5b8061203357508273ffffffffffffffffffffffffffffffffffffffff1661201b83610d99565b73ffffffffffffffffffffffffffffffffffffffff16145b5b90509392505050565b6000604051905090565b600080fd5b600080fd5b60007fffffffff0000000000000000000000000000000000000000000000000000000082169050919050565b61208681612051565b811461209157600080fd5b50565b6000813590506120a38161207d565b92915050565b6000602082840312156120bf576120be612047565b5b60006120cd84828501612094565b91505092915050565b60008115159050919050565b6120eb816120d6565b82525050565b600060208201905061210660008301846120e2565b92915050565b600081519050919050565b600082825260208201905092915050565b60005b8381101561214657808201518184015260208101905061212b565b60008484015250505050565b6000601f19601f8301169050919050565b600061216e8261210c565b6121788185612117565b9350612188818560208601612128565b61219181612152565b840191505092915050565b600060208201905081810360008301526121b68184612163565b905092915050565b6000819050919050565b6121d1816121be565b81146121dc57600080fd5b50565b6000813590506121ee816121c8565b92915050565b60006020828403121561220a57612209612047565b5b6000612218848285016121df565b91505092915050565b600073ffffffffffffffffffffffffffffffffffffffff82169050919050565b600061224c82612221565b9050919050565b61225c81612241565b82525050565b60006020820190506122776000830184612253565b92915050565b61228681612241565b811461229157600080fd5b50565b6000813590506122a38161227d565b92915050565b600080604083850312156122c0576122bf612047565b5b60006122ce85828601612294565b92505060206122df858286016121df565b9150509250929050565b6122f2816121be565b82525050565b600060208201905061230d60008301846122e9565b92915050565b60008060006060848603121561232c5761232b612047565b5b600061233a86828701612294565b935050602061234b86828701612294565b925050604061235c868287016121df565b9150509250925092565b600080fd5b600080fd5b7f4e487b7100000000000000000000000000000000000000000000000000000000600052604160045260246000fd5b6123a882612152565b810181811067ffffffffffffffff821117156123c7576123c6612370565b5b80604052505050565b60006123da61203d565b90506123e6828261239f565b919050565b600067ffffffffffffffff82111561240657612405612370565b5b61240f82612152565b9050602081019050919050565b82818337600083830152505050565b600061243e612439846123eb565b6123d0565b90508281526020810184848401111561245a5761245961236b565b5b61246584828561241c565b509392505050565b600082601f83011261248257612481612366565b5b813561249284826020860161242b565b91505092915050565b6000602082840312156124b1576124b0612047565b5b600082013567ffffffffffffffff8111156124cf576124ce61204c565b5b6124db8482850161246d565b91505092915050565b6000602082840312156124fa576124f9612047565b5b600061250884828501612294565b91505092915050565b61251a816120d6565b811461252557600080fd5b50565b60008135905061253781612511565b92915050565b6000806040838503121561255457612553612047565b5b600061256285828601612294565b925050602061257385828601612528565b9150509250929050565b600067ffffffffffffffff82111561259857612597612370565b5b6125a182612152565b9050602081019050919050565b60006125c16125bc8461257d565b6123d0565b9050828152602081018484840111156125dd576125dc61236b565b5b6125e884828561241c565b509392505050565b600082601f83011261260557612604612366565b5b81356126158482602086016125ae565b91505092915050565b6000806000806080858703121561263857612637612047565b5b600061264687828801612294565b945050602061265787828801612294565b9350506040612668878288016121df565b925050606085013567ffffffffffffffff8111156126895761268861204c565b5b612695878288016125f0565b91505092959194509250565b600080604083850312156126b8576126b7612047565b5b60006126c685828601612294565b92505060206126d785828601612294565b9150509250929050565b6000806000606084860312156126fa576126f9612047565b5b600061270886828701612294565b9350506020612719868287016121df565b925050604084013567ffffffffffffffff81111561273a5761273961204c565b5b6127468682870161246d565b9150509250925092565b7f4e487b7100000000000000000000000000000000000000000000000000000000600052602260045260246000fd5b6000600282049050600182168061279757607f821691505b6020821081036127aa576127a9612750565b5b50919050565b60006060820190506127c56000830186612253565b6127d260208301856122e9565b6127df6040830184612253565b949350505050565b60006040820190506127fc6000830185612253565b61280960208301846122e9565b9392505050565b7f4e487b7100000000000000000000000000000000000000000000000000000000600052603260045260246000fd5b60008190508160005260206000209050919050565b60006020601f8301049050919050565b600082821b905092915050565b6000600883026128a17fffffffffffffffffffffffffffffffffffffffffffffffffffffffffffffffff82612864565b6128ab8683612864565b95508019841693508086168417925050509392505050565b6000819050919050565b60006128e86128e36128de846121be565b6128c3565b6121be565b9050919050565b6000819050919050565b612902836128cd565b61291661290e826128ef565b848454612871565b825550505050565b600090565b61292b61291e565b6129368184846128f9565b505050565b5b8181101561295a5761294f600082612923565b60018101905061293c565b5050565b601f82111561299f576129708161283f565b61297984612854565b81016020851015612988578190505b61299c61299485612854565b83018261293b565b50505b505050565b600082821c905092915050565b60006129c2600019846008026129a4565b1980831691505092915050565b60006129db83836129b1565b9150826002028217905092915050565b6129f48261210c565b67ffffffffffffffff811115612a0d57612a0c612370565b5b612a17825461277f565b612a2282828561295e565b600060209050601f831160018114612a555760008415612a43578287015190505b612a4d85826129cf565b865550612ab5565b601f198416612a638661283f565b60005b82811015612a8b57848901518255600182019150602085019450602081019050612a66565b86831015612aa85784890151612aa4601f8916826129b1565b8355505b6001600288020188555050505b505050505050565b600081905092915050565b6000612ad38261210c565b612add8185612abd565b9350612aed818560208601612128565b80840191505092915050565b6000612b058285612ac8565b9150612b118284612ac8565b91508190509392505050565b600081519050919050565b600082825260208201905092915050565b6000612b4482612b1d565b612b4e8185612b28565b9350612b5e818560208601612128565b612b6781612152565b840191505092915050565b6000608082019050612b876000830187612253565b612b946020830186612253565b612ba160408301856122e9565b8181036060830152612bb38184612b39565b905095945050505050565b600081519050612bcd8161207d565b92915050565b600060208284031215612be957612be8612047565b5b6000612bf784828501612bbe565b91505092915050565b7f4e487b7100000000000000000000000000000000000000000000000000000000600052601260045260246000fd5b7f4e487b7100000000000000000000000000000000000000000000000000000000600052601160045260246000fd5b6000612c69826121be565b9150612c74836121be565b9250828203905081811115612c8c57612c8b612c2f565b5b92915050565b7f4e487b7100000000000000000000000000000000000000000000000000000000600052603160045260246000fdfea2646970667358221220bf29c287aae66a14b7cbe844b42671a303bbcb9e1db52fa8fa4a7dcc6499cf2664736f6c63430008140033",
  "linkReferences": {},
  "deployedLinkReferences": {}
}